:020000020000FC
:1000000001C05FC00FB700680FBF0BB700640BBF24
:10001000B89ABA9ABB9ABC9A0FEF10E020E062E05F
:1000200070E086B38071561799F550E0703051F545
:100030000F3F29F4203019F41F3F09F013951F3F9B
:1000400029F4203019F4003009F00A951F3F29F4F3
:10005000003019F42F3F09F023952F3F29F4003089
:1000600019F4103009F01A952F3F29F4103019F4C3
:100070000F3F09F003950F3F29F4103019F4203099
:1000800009F02A95713001F4723001F4733001F4F3
:10009000403009F453954395401710F0C09801C0C3
:1000A000C09A411710F0C29801C0C29A421710F0CE
:1000B000C39801C0C39A431710F0C49801C0C49AF2
:1000C000B0CF613011F462E01895623011F464E051
:1000D0001895643011F466E01895663011F46AE002
:1000E00018956A3011F464E11895643111F463E2F3
:1000F0001895633211F462E31895623311F460E5E8
:100100001895603511F46EE618956E3611F46AEAAA
:1001100018956A3A11F468EC1895683C11F461E09E
:040120001895189581
:00000001FF
